{
  "contractName": "Organization",
  "abi": [
    {
      "inputs": [
        {
          "internalType": "string",
          "name": "_name",
          "type": "string"
        },
        {
          "internalType": "address",
          "name": "_id",
          "type": "address"
        }
      ],
      "stateMutability": "nonpayable",
      "type": "constructor"
    },
    {
      "anonymous": false,
      "inputs": [
        {
          "indexed": false,
          "internalType": "address",
          "name": "_from",
          "type": "address"
        },
        {
          "indexed": false,
          "internalType": "uint256",
          "name": "_amount",
          "type": "uint256"
        },
        {
          "indexed": false,
          "internalType": "uint256",
          "name": "_time",
          "type": "uint256"
        }
      ],
      "name": "donationCreated",
      "type": "event"
    },
    {
      "anonymous": false,
      "inputs": [
        {
          "components": [
            {
              "internalType": "uint256",
              "name": "amount",
              "type": "uint256"
            },
            {
              "internalType": "uint256",
              "name": "time",
              "type": "uint256"
            }
          ],
          "indexed": false,
          "internalType": "struct Organization.WithdrawHistory",
          "name": "_history",
          "type": "tuple"
        }
      ],
      "name": "withDrawSuccess",
      "type": "event"
    },
    {
      "inputs": [],
      "name": "Owner",
      "outputs": [
        {
          "internalType": "address",
          "name": "",
          "type": "address"
        }
      ],
      "stateMutability": "view",
      "type": "function"
    },
    {
      "inputs": [],
      "name": "id",
      "outputs": [
        {
          "internalType": "address",
          "name": "",
          "type": "address"
        }
      ],
      "stateMutability": "view",
      "type": "function"
    },
    {
      "inputs": [],
      "name": "name",
      "outputs": [
        {
          "internalType": "string",
          "name": "",
          "type": "string"
        }
      ],
      "stateMutability": "view",
      "type": "function"
    },
    {
      "inputs": [],
      "name": "totalDonations",
      "outputs": [
        {
          "internalType": "uint256",
          "name": "",
          "type": "uint256"
        }
      ],
      "stateMutability": "view",
      "type": "function"
    },
    {
      "inputs": [
        {
          "internalType": "address",
          "name": "_newOwner",
          "type": "address"
        }
      ],
      "name": "transferOwnership",
      "outputs": [],
      "stateMutability": "nonpayable",
      "type": "function"
    },
    {
      "inputs": [
        {
          "internalType": "uint256",
          "name": "_amount",
          "type": "uint256"
        }
      ],
      "name": "donate",
      "outputs": [],
      "stateMutability": "payable",
      "type": "function"
    },
    {
      "inputs": [],
      "name": "withdraw",
      "outputs": [],
      "stateMutability": "payable",
      "type": "function"
    },
    {
      "inputs": [],
      "name": "getDonations",
      "outputs": [
        {
          "components": [
            {
              "internalType": "address",
              "name": "donorId",
              "type": "address"
            },
            {
              "internalType": "uint256",
              "name": "amount",
              "type": "uint256"
            },
            {
              "internalType": "uint256",
              "name": "time",
              "type": "uint256"
            }
          ],
          "internalType": "struct Organization.Donation[]",
          "name": "",
          "type": "tuple[]"
        }
      ],
      "stateMutability": "view",
      "type": "function"
    },
    {
      "inputs": [],
      "name": "getBalance",
      "outputs": [
        {
          "internalType": "uint256",
          "name": "",
          "type": "uint256"
        }
      ],
      "stateMutability": "view",
      "type": "function"
    },
    {
      "inputs": [],
      "name": "getWithdrawTransaction",
      "outputs": [
        {
          "components": [
            {
              "internalType": "uint256",
              "name": "amount",
              "type": "uint256"
            },
            {
              "internalType": "uint256",
              "name": "time",
              "type": "uint256"
            }
          ],
          "internalType": "struct Organization.WithdrawHistory[]",
          "name": "",
          "type": "tuple[]"
        }
      ],
      "stateMutability": "view",
      "type": "function"
    }
  ],
  "bytecode": "0x60806040523480156200001157600080fd5b50604051620011dc380380620011dc83398181016040528101906200003791906200021b565b81600090805190602001906200004f929190620000e2565b5080600160006101000a81548173ffffffffffffffffffffffffffffffffffffffff021916908373ffffffffffffffffffffffffffffffffffffffff160217905550600060028190555033600360006101000a81548173ffffffffffffffffffffffffffffffffffffffff021916908373ffffffffffffffffffffffffffffffffffffffff160217905550505062000433565b828054620000f0906200033e565b90600052602060002090601f01602090048101928262000114576000855562000160565b82601f106200012f57805160ff191683800117855562000160565b8280016001018555821562000160579182015b828111156200015f57825182559160200191906001019062000142565b5b5090506200016f919062000173565b5090565b5b808211156200018e57600081600090555060010162000174565b5090565b6000620001a9620001a3846200029e565b62000275565b905082815260208101848484011115620001c257600080fd5b620001cf84828562000308565b509392505050565b600081519050620001e88162000419565b92915050565b600082601f8301126200020057600080fd5b81516200021284826020860162000192565b91505092915050565b600080604083850312156200022f57600080fd5b600083015167ffffffffffffffff8111156200024a57600080fd5b6200025885828601620001ee565b92505060206200026b85828601620001d7565b9150509250929050565b60006200028162000294565b90506200028f828262000374565b919050565b6000604051905090565b600067ffffffffffffffff821115620002bc57620002bb620003d9565b5b620002c78262000408565b9050602081019050919050565b6000620002e182620002e8565b9050919050565b600073ffffffffffffffffffffffffffffffffffffffff82169050919050565b60005b83811015620003285780820151818401526020810190506200030b565b8381111562000338576000848401525b50505050565b600060028204905060018216806200035757607f821691505b602082108114156200036e576200036d620003aa565b5b50919050565b6200037f8262000408565b810181811067ffffffffffffffff82111715620003a157620003a0620003d9565b5b80604052505050565b7f4e487b7100000000000000000000000000000000000000000000000000000000600052602260045260246000fd5b7f4e487b7100000000000000000000000000000000000000000000000000000000600052604160045260246000fd5b6000601f19601f8301169050919050565b6200042481620002d4565b81146200043057600080fd5b50565b610d9980620004436000396000f3fe6080604052600436106100915760003560e01c8063b4a99a4e11610059578063b4a99a4e1461014c578063de2ed89314610177578063e25f8416146101a2578063f14faf6f146101cd578063f2fde38b146101e957610091565b806306fdde031461009657806312065fe0146100c15780633ccfd60b146100ec57806391277e79146100f6578063af640d0f14610121575b600080fd5b3480156100a257600080fd5b506100ab610212565b6040516100b89190610aad565b60405180910390f35b3480156100cd57600080fd5b506100d66102a0565b6040516100e39190610b0a565b60405180910390f35b6100f46102a8565b005b34801561010257600080fd5b5061010b610436565b6040516101189190610a8b565b60405180910390f35b34801561012d57600080fd5b506101366104a9565b6040516101439190610a17565b60405180910390f35b34801561015857600080fd5b506101616104cf565b60405161016e9190610a17565b60405180910390f35b34801561018357600080fd5b5061018c6104f5565b6040516101999190610b0a565b60405180910390f35b3480156101ae57600080fd5b506101b76104fb565b6040516101c49190610a69565b60405180910390f35b6101e760048036038101906101e291906107ca565b6105c4565b005b3480156101f557600080fd5b50610210600480360381019061020b91906107a1565b6106d9565b005b6000805461021f90610c22565b80601f016020809104026020016040519081016040528092919081815260200182805461024b90610c22565b80156102985780601f1061026d57610100808354040283529160200191610298565b820191906000526020600020905b81548152906001019060200180831161027b57829003601f168201915b505050505081565b600047905090565b3373ffffffffffffffffffffffffffffffffffffffff16600360009054906101000a900473ffffffffffffffffffffffffffffffffffffffff1673ffffffffffffffffffffffffffffffffffffffff1614610338576040517f08c379a000000000000000000000000000000000000000000000000000000000815260040161032f90610acf565b60405180910390fd5b60006040518060400160405280478152602001428152509050600581908060018154018082558091505060019003906000526020600020906002020160009091909190915060008201518160000155602082015181600101555050600160009054906101000a900473ffffffffffffffffffffffffffffffffffffffff1673ffffffffffffffffffffffffffffffffffffffff166108fc479081150290604051600060405180830381858888f193505050501580156103fb573d6000803e3d6000fd5b507fe4b4a57aad84cd1e781db42a53e727417aeaa00824bab7f1e21ee2348bb73f6e8160405161042b9190610aef565b60405180910390a150565b60606005805480602002602001604051908101604052809291908181526020016000905b828210156104a05783829060005260206000209060020201604051806040016040529081600082015481526020016001820154815250508152602001906001019061045a565b50505050905090565b600160009054906101000a900473ffffffffffffffffffffffffffffffffffffffff1681565b600360009054906101000a900473ffffffffffffffffffffffffffffffffffffffff1681565b60025481565b60606004805480602002602001604051908101604052809291908181526020016000905b828210156105bb57838290600052602060002090600302016040518060600160405290816000820160009054906101000a900473ffffffffffffffffffffffffffffffffffffffff1673ffffffffffffffffffffffffffffffffffffffff1673ffffffffffffffffffffffffffffffffffffffff168152602001600182015481526020016002820154815250508152602001906001019061051f565b50505050905090565b600060405180606001604052803373ffffffffffffffffffffffffffffffffffffffff168152602001838152602001428152509050600481908060018154018082558091505060019003906000526020600020906003020160009091909190915060008201518160000160006101000a81548173ffffffffffffffffffffffffffffffffffffffff021916908373ffffffffffffffffffffffffffffffffffffffff160217905550602082015181600101556040820151816002015550506002600081548092919061069590610c54565b91905055507fb5c2c442d88525bd649cfbe83ce24b77b613966dcd91e8b2bc3f35d1cd936ac93383426040516106cd93929190610a32565b60405180910390a15050565b600360009054906101000a900473ffffffffffffffffffffffffffffffffffffffff1673ffffffffffffffffffffffffffffffffffffffff163373ffffffffffffffffffffffffffffffffffffffff161461073357600080fd5b80600360006101000a81548173ffffffffffffffffffffffffffffffffffffffff021916908373ffffffffffffffffffffffffffffffffffffffff16021790555050565b60008135905061078681610d35565b92915050565b60008135905061079b81610d4c565b92915050565b6000602082840312156107b357600080fd5b60006107c184828501610777565b91505092915050565b6000602082840312156107dc57600080fd5b60006107ea8482850161078c565b91505092915050565b60006107ff8383610959565b60608301905092915050565b6000610817838361099b565b60408301905092915050565b61082c81610bb3565b82525050565b61083b81610bb3565b82525050565b600061084c82610b45565b6108568185610b80565b935061086183610b25565b8060005b8381101561089257815161087988826107f3565b975061088483610b66565b925050600181019050610865565b5085935050505092915050565b60006108aa82610b50565b6108b48185610b91565b93506108bf83610b35565b8060005b838110156108f05781516108d7888261080b565b97506108e283610b73565b9250506001810190506108c3565b5085935050505092915050565b600061090882610b5b565b6109128185610ba2565b9350610922818560208601610bef565b61092b81610cfb565b840191505092915050565b6000610943601783610ba2565b915061094e82610d0c565b602082019050919050565b60608201600082015161096f6000850182610823565b50602082015161098260208501826109f9565b50604082015161099560408501826109f9565b50505050565b6040820160008201516109b160008501826109f9565b5060208201516109c460208501826109f9565b50505050565b6040820160008201516109e060008501826109f9565b5060208201516109f360208501826109f9565b50505050565b610a0281610be5565b82525050565b610a1181610be5565b82525050565b6000602082019050610a2c6000830184610832565b92915050565b6000606082019050610a476000830186610832565b610a546020830185610a08565b610a616040830184610a08565b949350505050565b60006020820190508181036000830152610a838184610841565b905092915050565b60006020820190508181036000830152610aa5818461089f565b905092915050565b60006020820190508181036000830152610ac781846108fd565b905092915050565b60006020820190508181036000830152610ae881610936565b9050919050565b6000604082019050610b0460008301846109ca565b92915050565b6000602082019050610b1f6000830184610a08565b92915050565b6000819050602082019050919050565b6000819050602082019050919050565b600081519050919050565b600081519050919050565b600081519050919050565b6000602082019050919050565b6000602082019050919050565b600082825260208201905092915050565b600082825260208201905092915050565b600082825260208201905092915050565b6000610bbe82610bc5565b9050919050565b600073ffffffffffffffffffffffffffffffffffffffff82169050919050565b6000819050919050565b60005b83811015610c0d578082015181840152602081019050610bf2565b83811115610c1c576000848401525b50505050565b60006002820490506001821680610c3a57607f821691505b60208210811415610c4e57610c4d610ccc565b5b50919050565b6000610c5f82610be5565b91507fffffffffffffffffffffffffffffffffffffffffffffffffffffffffffffffff821415610c9257610c91610c9d565b5b600182019050919050565b7f4e487b7100000000000000000000000000000000000000000000000000000000600052601160045260246000fd5b7f4e487b7100000000000000000000000000000000000000000000000000000000600052602260045260246000fd5b6000601f19601f8301169050919050565b7f4f6e6c79206f776e65722063616e207769746864726177000000000000000000600082015250565b610d3e81610bb3565b8114610d4957600080fd5b50565b610d5581610be5565b8114610d6057600080fd5b5056fea264697066735822122018319b9dc7b07fd5b41fa89dfe60414386cde40304a3c4c198b078d4072c396764736f6c63430008040033",
  "immutableReferences": {},
  "source": "// SPDX-License-Identifier: MIT\r\npragma solidity >0.4.23 <0.9.0;\r\n\r\n// import \"@openzeppelin/contracts/access/Ownable.sol\";\r\n\r\ncontract Organization {\r\n  string public name;\r\n  address public id;\r\n  uint public totalDonations;\r\n  address public Owner;\r\n\r\n  struct Donation {\r\n    address donorId;\r\n    uint amount;\r\n    uint time;\r\n  }\r\n\r\n  struct WithdrawHistory {\r\n    uint amount;\r\n    uint time;\r\n  }\r\n\r\n  Donation[] donations;\r\n  WithdrawHistory[] histories;\r\n\r\n  constructor ( string memory _name, address _id ) {\r\n    name = _name;\r\n    id = _id;\r\n    totalDonations = 0;\r\n    Owner = msg.sender;\r\n  }\r\n\r\n  function transferOwnership(address _newOwner) public {\r\n      require(msg.sender == Owner);\r\n      Owner = _newOwner;  \r\n    }\r\n\r\n  event donationCreated (address _from, uint _amount, uint _time);\r\n  event withDrawSuccess (WithdrawHistory _history);\r\n\r\n  function donate (uint _amount) external payable{\r\n    Donation memory donation = Donation(msg.sender, _amount, block.timestamp);\r\n    donations.push(donation);\r\n    totalDonations++;\r\n    emit donationCreated(msg.sender, _amount, block.timestamp);\r\n  }\r\n\r\n  function withdraw () public payable {\r\n    require(Owner == msg.sender, \"Only owner can withdraw\");\r\n    WithdrawHistory memory history = WithdrawHistory(address(this).balance, block.timestamp);\r\n    histories.push(history);\r\n    payable(id).transfer(address(this).balance);\r\n    emit withDrawSuccess(history);\r\n  }\r\n\r\n  function getDonations () public view returns (Donation[] memory) {\r\n    return donations;\r\n  }\r\n\r\n  // function getTotalDonations() public view returns (uint) {\r\n  //   return totalDonations;\r\n  // }\r\n  function getBalance() public view returns (uint){\r\n    return address(this).balance;\r\n  }\r\n\r\n  function getWithdrawTransaction () public view returns (WithdrawHistory[] memory) {\r\n    return histories;\r\n  }\r\n  // function isOwner() public view returns (bool) {\r\n  //   return address(this) == msg.sender;\r\n  // }\r\n}",
  "sourcePath": "D:\\WORK\\chicken-donate\\contracts\\Organization.sol",
  "compiler": {
    "name": "solc",
    "version": "0.8.4+commit.c7e474f2.Emscripten.clang"
  },
  "schemaVersion": "3.4.7",
  "updatedAt": "2022-05-28T14:56:06.955Z",
  "devdoc": {
    "kind": "dev",
    "methods": {},
    "version": 1
  },
  "userdoc": {
    "kind": "user",
    "methods": {},
    "version": 1
  }
}