{
  "contractName": "Organization",
  "abi": [
    {
      "inputs": [
        {
          "internalType": "string",
          "name": "_name",
          "type": "string"
        },
        {
          "internalType": "address",
          "name": "_id",
          "type": "address"
        }
      ],
      "stateMutability": "nonpayable",
      "type": "constructor"
    },
    {
      "anonymous": false,
      "inputs": [
        {
          "indexed": true,
          "internalType": "address",
          "name": "previousOwner",
          "type": "address"
        },
        {
          "indexed": true,
          "internalType": "address",
          "name": "newOwner",
          "type": "address"
        }
      ],
      "name": "OwnershipTransferred",
      "type": "event"
    },
    {
      "anonymous": false,
      "inputs": [
        {
          "indexed": false,
          "internalType": "address",
          "name": "_from",
          "type": "address"
        },
        {
          "indexed": false,
          "internalType": "uint256",
          "name": "_amount",
          "type": "uint256"
        },
        {
          "indexed": false,
          "internalType": "uint256",
          "name": "_time",
          "type": "uint256"
        }
      ],
      "name": "donationCreated",
      "type": "event"
    },
    {
      "anonymous": false,
      "inputs": [
        {
          "components": [
            {
              "internalType": "uint256",
              "name": "amount",
              "type": "uint256"
            },
            {
              "internalType": "uint256",
              "name": "time",
              "type": "uint256"
            }
          ],
          "indexed": false,
          "internalType": "struct Organization.WithdrawHistory",
          "name": "_history",
          "type": "tuple"
        }
      ],
      "name": "withDrawSuccess",
      "type": "event"
    },
    {
      "inputs": [],
      "name": "id",
      "outputs": [
        {
          "internalType": "address",
          "name": "",
          "type": "address"
        }
      ],
      "stateMutability": "view",
      "type": "function"
    },
    {
      "inputs": [],
      "name": "name",
      "outputs": [
        {
          "internalType": "string",
          "name": "",
          "type": "string"
        }
      ],
      "stateMutability": "view",
      "type": "function"
    },
    {
      "inputs": [],
      "name": "owner",
      "outputs": [
        {
          "internalType": "address",
          "name": "",
          "type": "address"
        }
      ],
      "stateMutability": "view",
      "type": "function"
    },
    {
      "inputs": [],
      "name": "renounceOwnership",
      "outputs": [],
      "stateMutability": "nonpayable",
      "type": "function"
    },
    {
      "inputs": [],
      "name": "totalDonations",
      "outputs": [
        {
          "internalType": "uint256",
          "name": "",
          "type": "uint256"
        }
      ],
      "stateMutability": "view",
      "type": "function"
    },
    {
      "inputs": [
        {
          "internalType": "address",
          "name": "newOwner",
          "type": "address"
        }
      ],
      "name": "transferOwnership",
      "outputs": [],
      "stateMutability": "nonpayable",
      "type": "function"
    },
    {
      "inputs": [
        {
          "internalType": "uint256",
          "name": "_amount",
          "type": "uint256"
        }
      ],
      "name": "donate",
      "outputs": [],
      "stateMutability": "payable",
      "type": "function"
    },
    {
      "inputs": [],
      "name": "withdraw",
      "outputs": [],
      "stateMutability": "payable",
      "type": "function"
    },
    {
      "inputs": [],
      "name": "getDonations",
      "outputs": [
        {
          "components": [
            {
              "internalType": "address",
              "name": "donorId",
              "type": "address"
            },
            {
              "internalType": "uint256",
              "name": "amount",
              "type": "uint256"
            },
            {
              "internalType": "uint256",
              "name": "time",
              "type": "uint256"
            }
          ],
          "internalType": "struct Organization.Donation[]",
          "name": "",
          "type": "tuple[]"
        }
      ],
      "stateMutability": "view",
      "type": "function"
    },
    {
      "inputs": [],
      "name": "getTotalDonations",
      "outputs": [
        {
          "internalType": "uint256",
          "name": "",
          "type": "uint256"
        }
      ],
      "stateMutability": "view",
      "type": "function"
    },
    {
      "inputs": [],
      "name": "getBalance",
      "outputs": [
        {
          "internalType": "uint256",
          "name": "",
          "type": "uint256"
        }
      ],
      "stateMutability": "view",
      "type": "function"
    },
    {
      "inputs": [],
      "name": "getWithdrawTransaction",
      "outputs": [
        {
          "components": [
            {
              "internalType": "uint256",
              "name": "amount",
              "type": "uint256"
            },
            {
              "internalType": "uint256",
              "name": "time",
              "type": "uint256"
            }
          ],
          "internalType": "struct Organization.WithdrawHistory[]",
          "name": "",
          "type": "tuple[]"
        }
      ],
      "stateMutability": "view",
      "type": "function"
    },
    {
      "inputs": [],
      "name": "isOwner",
      "outputs": [
        {
          "internalType": "bool",
          "name": "",
          "type": "bool"
        }
      ],
      "stateMutability": "view",
      "type": "function"
    }
  ],
  "bytecode": "0x60806040523480156200001157600080fd5b50604051620016a4380380620016a48339818101604052810190620000379190620002c6565b620000576200004b620000c160201b60201c565b620000c960201b60201c565b81600190805190602001906200006f9291906200018d565b5080600260006101000a81548173ffffffffffffffffffffffffffffffffffffffff021916908373ffffffffffffffffffffffffffffffffffffffff16021790555060006003819055505050620004de565b600033905090565b60008060009054906101000a900473ffffffffffffffffffffffffffffffffffffffff169050816000806101000a81548173ffffffffffffffffffffffffffffffffffffffff021916908373ffffffffffffffffffffffffffffffffffffffff1602179055508173ffffffffffffffffffffffffffffffffffffffff168173ffffffffffffffffffffffffffffffffffffffff167f8be0079c531659141344cd1fd0a4f28419497f9722a3daafe3b4186f6b6457e060405160405180910390a35050565b8280546200019b90620003e9565b90600052602060002090601f016020900481019282620001bf57600085556200020b565b82601f10620001da57805160ff19168380011785556200020b565b828001600101855582156200020b579182015b828111156200020a578251825591602001919060010190620001ed565b5b5090506200021a91906200021e565b5090565b5b80821115620002395760008160009055506001016200021f565b5090565b6000620002546200024e8462000349565b62000320565b9050828152602081018484840111156200026d57600080fd5b6200027a848285620003b3565b509392505050565b6000815190506200029381620004c4565b92915050565b600082601f830112620002ab57600080fd5b8151620002bd8482602086016200023d565b91505092915050565b60008060408385031215620002da57600080fd5b600083015167ffffffffffffffff811115620002f557600080fd5b620003038582860162000299565b9250506020620003168582860162000282565b9150509250929050565b60006200032c6200033f565b90506200033a82826200041f565b919050565b6000604051905090565b600067ffffffffffffffff82111562000367576200036662000484565b5b6200037282620004b3565b9050602081019050919050565b60006200038c8262000393565b9050919050565b600073ffffffffffffffffffffffffffffffffffffffff82169050919050565b60005b83811015620003d3578082015181840152602081019050620003b6565b83811115620003e3576000848401525b50505050565b600060028204905060018216806200040257607f821691505b6020821081141562000419576200041862000455565b5b50919050565b6200042a82620004b3565b810181811067ffffffffffffffff821117156200044c576200044b62000484565b5b80604052505050565b7f4e487b7100000000000000000000000000000000000000000000000000000000600052602260045260246000fd5b7f4e487b7100000000000000000000000000000000000000000000000000000000600052604160045260246000fd5b6000601f19601f8301169050919050565b620004cf816200037f565b8114620004db57600080fd5b50565b6111b680620004ee6000396000f3fe6080604052600436106100c25760003560e01c80638f32d59b1161007f578063de2ed89311610059578063de2ed89314610215578063e25f841614610240578063f14faf6f1461026b578063f2fde38b14610287576100c2565b80638f32d59b1461019457806391277e79146101bf578063af640d0f146101ea576100c2565b806306fdde03146100c757806312065fe0146100f25780633ccfd60b1461011d578063715018a614610127578063777c658f1461013e5780638da5cb5b14610169575b600080fd5b3480156100d357600080fd5b506100dc6102b0565b6040516100e99190610e06565b60405180910390f35b3480156100fe57600080fd5b5061010761033e565b6040516101149190610ea3565b60405180910390f35b610125610346565b005b34801561013357600080fd5b5061013c61052e565b005b34801561014a57600080fd5b506101536105b6565b6040516101609190610ea3565b60405180910390f35b34801561017557600080fd5b5061017e6105c0565b60405161018b9190610d55565b60405180910390f35b3480156101a057600080fd5b506101a96105e9565b6040516101b69190610deb565b60405180910390f35b3480156101cb57600080fd5b506101d461061f565b6040516101e19190610dc9565b60405180910390f35b3480156101f657600080fd5b506101ff610692565b60405161020c9190610d55565b60405180910390f35b34801561022157600080fd5b5061022a6106b8565b6040516102379190610ea3565b60405180910390f35b34801561024c57600080fd5b506102556106be565b6040516102629190610da7565b60405180910390f35b61028560048036038101906102809190610ab3565b610787565b005b34801561029357600080fd5b506102ae60048036038101906102a99190610a8a565b61089c565b005b600180546102bd90610fc7565b80601f01602080910402602001604051908101604052809291908181526020018280546102e990610fc7565b80156103365780601f1061030b57610100808354040283529160200191610336565b820191906000526020600020905b81548152906001019060200180831161031957829003601f168201915b505050505081565b600047905090565b61034e610994565b73ffffffffffffffffffffffffffffffffffffffff1661036c6105c0565b73ffffffffffffffffffffffffffffffffffffffff16146103c2576040517f08c379a00000000000000000000000000000000000000000000000000000000081526004016103b990610e68565b60405180910390fd5b3373ffffffffffffffffffffffffffffffffffffffff163073ffffffffffffffffffffffffffffffffffffffff1614610430576040517f08c379a000000000000000000000000000000000000000000000000000000000815260040161042790610e48565b60405180910390fd5b60006040518060400160405280478152602001428152509050600581908060018154018082558091505060019003906000526020600020906002020160009091909190915060008201518160000155602082015181600101555050600260009054906101000a900473ffffffffffffffffffffffffffffffffffffffff1673ffffffffffffffffffffffffffffffffffffffff166108fc479081150290604051600060405180830381858888f193505050501580156104f3573d6000803e3d6000fd5b507fe4b4a57aad84cd1e781db42a53e727417aeaa00824bab7f1e21ee2348bb73f6e816040516105239190610e88565b60405180910390a150565b610536610994565b73ffffffffffffffffffffffffffffffffffffffff166105546105c0565b73ffffffffffffffffffffffffffffffffffffffff16146105aa576040517f08c379a00000000000000000000000000000000000000000000000000000000081526004016105a190610e68565b60405180910390fd5b6105b4600061099c565b565b6000600354905090565b60008060009054906101000a900473ffffffffffffffffffffffffffffffffffffffff16905090565b60003373ffffffffffffffffffffffffffffffffffffffff163073ffffffffffffffffffffffffffffffffffffffff1614905090565b60606005805480602002602001604051908101604052809291908181526020016000905b8282101561068957838290600052602060002090600202016040518060400160405290816000820154815260200160018201548152505081526020019060010190610643565b50505050905090565b600260009054906101000a900473ffffffffffffffffffffffffffffffffffffffff1681565b60035481565b60606004805480602002602001604051908101604052809291908181526020016000905b8282101561077e57838290600052602060002090600302016040518060600160405290816000820160009054906101000a900473ffffffffffffffffffffffffffffffffffffffff1673ffffffffffffffffffffffffffffffffffffffff1673ffffffffffffffffffffffffffffffffffffffff16815260200160018201548152602001600282015481525050815260200190600101906106e2565b50505050905090565b600060405180606001604052803373ffffffffffffffffffffffffffffffffffffffff168152602001838152602001428152509050600481908060018154018082558091505060019003906000526020600020906003020160009091909190915060008201518160000160006101000a81548173ffffffffffffffffffffffffffffffffffffffff021916908373ffffffffffffffffffffffffffffffffffffffff160217905550602082015181600101556040820151816002015550506003600081548092919061085890610ff9565b91905055507fb5c2c442d88525bd649cfbe83ce24b77b613966dcd91e8b2bc3f35d1cd936ac933834260405161089093929190610d70565b60405180910390a15050565b6108a4610994565b73ffffffffffffffffffffffffffffffffffffffff166108c26105c0565b73ffffffffffffffffffffffffffffffffffffffff1614610918576040517f08c379a000000000000000000000000000000000000000000000000000000000815260040161090f90610e68565b60405180910390fd5b600073ffffffffffffffffffffffffffffffffffffffff168173ffffffffffffffffffffffffffffffffffffffff161415610988576040517f08c379a000000000000000000000000000000000000000000000000000000000815260040161097f90610e28565b60405180910390fd5b6109918161099c565b50565b600033905090565b60008060009054906101000a900473ffffffffffffffffffffffffffffffffffffffff169050816000806101000a81548173ffffffffffffffffffffffffffffffffffffffff021916908373ffffffffffffffffffffffffffffffffffffffff1602179055508173ffffffffffffffffffffffffffffffffffffffff168173ffffffffffffffffffffffffffffffffffffffff167f8be0079c531659141344cd1fd0a4f28419497f9722a3daafe3b4186f6b6457e060405160405180910390a35050565b600081359050610a6f81611152565b92915050565b600081359050610a8481611169565b92915050565b600060208284031215610a9c57600080fd5b6000610aaa84828501610a60565b91505092915050565b600060208284031215610ac557600080fd5b6000610ad384828501610a75565b91505092915050565b6000610ae88383610c97565b60608301905092915050565b6000610b008383610cd9565b60408301905092915050565b610b1581610f4c565b82525050565b610b2481610f4c565b82525050565b6000610b3582610ede565b610b3f8185610f19565b9350610b4a83610ebe565b8060005b83811015610b7b578151610b628882610adc565b9750610b6d83610eff565b925050600181019050610b4e565b5085935050505092915050565b6000610b9382610ee9565b610b9d8185610f2a565b9350610ba883610ece565b8060005b83811015610bd9578151610bc08882610af4565b9750610bcb83610f0c565b925050600181019050610bac565b5085935050505092915050565b610bef81610f5e565b82525050565b6000610c0082610ef4565b610c0a8185610f3b565b9350610c1a818560208601610f94565b610c23816110a0565b840191505092915050565b6000610c3b602683610f3b565b9150610c46826110b1565b604082019050919050565b6000610c5e601783610f3b565b9150610c6982611100565b602082019050919050565b6000610c81602083610f3b565b9150610c8c82611129565b602082019050919050565b606082016000820151610cad6000850182610b0c565b506020820151610cc06020850182610d37565b506040820151610cd36040850182610d37565b50505050565b604082016000820151610cef6000850182610d37565b506020820151610d026020850182610d37565b50505050565b604082016000820151610d1e6000850182610d37565b506020820151610d316020850182610d37565b50505050565b610d4081610f8a565b82525050565b610d4f81610f8a565b82525050565b6000602082019050610d6a6000830184610b1b565b92915050565b6000606082019050610d856000830186610b1b565b610d926020830185610d46565b610d9f6040830184610d46565b949350505050565b60006020820190508181036000830152610dc18184610b2a565b905092915050565b60006020820190508181036000830152610de38184610b88565b905092915050565b6000602082019050610e006000830184610be6565b92915050565b60006020820190508181036000830152610e208184610bf5565b905092915050565b60006020820190508181036000830152610e4181610c2e565b9050919050565b60006020820190508181036000830152610e6181610c51565b9050919050565b60006020820190508181036000830152610e8181610c74565b9050919050565b6000604082019050610e9d6000830184610d08565b92915050565b6000602082019050610eb86000830184610d46565b92915050565b6000819050602082019050919050565b6000819050602082019050919050565b600081519050919050565b600081519050919050565b600081519050919050565b6000602082019050919050565b6000602082019050919050565b600082825260208201905092915050565b600082825260208201905092915050565b600082825260208201905092915050565b6000610f5782610f6a565b9050919050565b60008115159050919050565b600073ffffffffffffffffffffffffffffffffffffffff82169050919050565b6000819050919050565b60005b83811015610fb2578082015181840152602081019050610f97565b83811115610fc1576000848401525b50505050565b60006002820490506001821680610fdf57607f821691505b60208210811415610ff357610ff2611071565b5b50919050565b600061100482610f8a565b91507fffffffffffffffffffffffffffffffffffffffffffffffffffffffffffffffff82141561103757611036611042565b5b600182019050919050565b7f4e487b7100000000000000000000000000000000000000000000000000000000600052601160045260246000fd5b7f4e487b7100000000000000000000000000000000000000000000000000000000600052602260045260246000fd5b6000601f19601f8301169050919050565b7f4f776e61626c653a206e6577206f776e657220697320746865207a65726f206160008201527f6464726573730000000000000000000000000000000000000000000000000000602082015250565b7f4f6e6c79206f776e65722063616e207769746864726177000000000000000000600082015250565b7f4f776e61626c653a2063616c6c6572206973206e6f7420746865206f776e6572600082015250565b61115b81610f4c565b811461116657600080fd5b50565b61117281610f8a565b811461117d57600080fd5b5056fea2646970667358221220515829409661c0ff1c0895816e4a5473a5f47702712c9ff39dfac3a715ba996b64736f6c63430008040033",
  "immutableReferences": {},
  "source": "// SPDX-License-Identifier: MIT\r\npragma solidity >0.4.23 <0.9.0;\r\n\r\nimport \"@openzeppelin/contracts/access/Ownable.sol\";\r\n\r\ncontract Organization is Ownable {\r\n  string public name;\r\n  address public id;\r\n  uint public totalDonations;\r\n\r\n  struct Donation {\r\n    address donorId;\r\n    uint amount;\r\n    uint time;\r\n  }\r\n\r\n  struct WithdrawHistory {\r\n    uint amount;\r\n    uint time;\r\n  }\r\n\r\n  Donation[] donations;\r\n  WithdrawHistory[] histories;\r\n\r\n  constructor ( string memory _name, address _id ) {\r\n    name = _name;\r\n    id = _id;\r\n    totalDonations = 0;\r\n  }\r\n\r\n  event donationCreated (address _from, uint _amount, uint _time);\r\n  event withDrawSuccess (WithdrawHistory _history);\r\n\r\n  function donate (uint _amount) external payable{\r\n    Donation memory donation = Donation(msg.sender, _amount, block.timestamp);\r\n    donations.push(donation);\r\n    totalDonations++;\r\n    emit donationCreated(msg.sender, _amount, block.timestamp);\r\n  }\r\n\r\n  function withdraw () public payable onlyOwner {\r\n    require(address(this) == msg.sender, \"Only owner can withdraw\");\r\n    WithdrawHistory memory history = WithdrawHistory(address(this).balance, block.timestamp);\r\n    histories.push(history);\r\n    payable(id).transfer(address(this).balance);\r\n    emit withDrawSuccess(history);\r\n  }\r\n\r\n  function getDonations () public view returns (Donation[] memory) {\r\n    return donations;\r\n  }\r\n\r\n  function getTotalDonations() public view returns (uint) {\r\n    return totalDonations;\r\n  }\r\n  function getBalance() public view returns (uint){\r\n    return address(this).balance;\r\n  }\r\n  \r\n  function getWithdrawTransaction () public view returns (WithdrawHistory[] memory) {\r\n    return histories;\r\n  }\r\n  function isOwner() public view returns (bool) {\r\n    return address(this) == msg.sender;\r\n  }\r\n}",
  "sourcePath": "D:\\WORK\\chicken-donate\\contracts\\Organization.sol",
  "compiler": {
    "name": "solc",
    "version": "0.8.4+commit.c7e474f2.Emscripten.clang"
  },
  "schemaVersion": "3.4.7",
  "updatedAt": "2022-05-26T17:04:15.604Z",
  "devdoc": {
    "kind": "dev",
    "methods": {
      "owner()": {
        "details": "Returns the address of the current owner."
      },
      "renounceOwnership()": {
        "details": "Leaves the contract without owner. It will not be possible to call `onlyOwner` functions anymore. Can only be called by the current owner. NOTE: Renouncing ownership will leave the contract without an owner, thereby removing any functionality that is only available to the owner."
      },
      "transferOwnership(address)": {
        "details": "Transfers ownership of the contract to a new account (`newOwner`). Can only be called by the current owner."
      }
    },
    "version": 1
  },
  "userdoc": {
    "kind": "user",
    "methods": {},
    "version": 1
  }
}