{
  "contractName": "Organization",
  "abi": [
    {
      "inputs": [
        {
          "internalType": "string",
          "name": "_name",
          "type": "string"
        },
        {
          "internalType": "address",
          "name": "_id",
          "type": "address"
        }
      ],
      "stateMutability": "nonpayable",
      "type": "constructor"
    },
    {
      "anonymous": false,
      "inputs": [
        {
          "indexed": true,
          "internalType": "address",
          "name": "previousOwner",
          "type": "address"
        },
        {
          "indexed": true,
          "internalType": "address",
          "name": "newOwner",
          "type": "address"
        }
      ],
      "name": "OwnershipTransferred",
      "type": "event"
    },
    {
      "anonymous": false,
      "inputs": [
        {
          "indexed": false,
          "internalType": "address",
          "name": "_from",
          "type": "address"
        },
        {
          "indexed": false,
          "internalType": "uint256",
          "name": "_amount",
          "type": "uint256"
        },
        {
          "indexed": false,
          "internalType": "uint256",
          "name": "_time",
          "type": "uint256"
        }
      ],
      "name": "donationCreated",
      "type": "event"
    },
    {
      "anonymous": false,
      "inputs": [
        {
          "components": [
            {
              "internalType": "uint256",
              "name": "amount",
              "type": "uint256"
            },
            {
              "internalType": "uint256",
              "name": "time",
              "type": "uint256"
            }
          ],
          "indexed": false,
          "internalType": "struct Organization.WithdrawHistory",
          "name": "_history",
          "type": "tuple"
        }
      ],
      "name": "withDrawSuccess",
      "type": "event"
    },
    {
      "inputs": [],
      "name": "id",
      "outputs": [
        {
          "internalType": "address",
          "name": "",
          "type": "address"
        }
      ],
      "stateMutability": "view",
      "type": "function"
    },
    {
      "inputs": [],
      "name": "name",
      "outputs": [
        {
          "internalType": "string",
          "name": "",
          "type": "string"
        }
      ],
      "stateMutability": "view",
      "type": "function"
    },
    {
      "inputs": [],
      "name": "owner",
      "outputs": [
        {
          "internalType": "address",
          "name": "",
          "type": "address"
        }
      ],
      "stateMutability": "view",
      "type": "function"
    },
    {
      "inputs": [],
      "name": "renounceOwnership",
      "outputs": [],
      "stateMutability": "nonpayable",
      "type": "function"
    },
    {
      "inputs": [],
      "name": "totalDonations",
      "outputs": [
        {
          "internalType": "uint256",
          "name": "",
          "type": "uint256"
        }
      ],
      "stateMutability": "view",
      "type": "function"
    },
    {
      "inputs": [
        {
          "internalType": "address",
          "name": "newOwner",
          "type": "address"
        }
      ],
      "name": "transferOwnership",
      "outputs": [],
      "stateMutability": "nonpayable",
      "type": "function"
    },
    {
      "inputs": [
        {
          "internalType": "uint256",
          "name": "_amount",
          "type": "uint256"
        }
      ],
      "name": "donate",
      "outputs": [],
      "stateMutability": "payable",
      "type": "function"
    },
    {
      "inputs": [],
      "name": "withdraw",
      "outputs": [],
      "stateMutability": "payable",
      "type": "function"
    },
    {
      "inputs": [],
      "name": "getDonations",
      "outputs": [
        {
          "components": [
            {
              "internalType": "address",
              "name": "donorId",
              "type": "address"
            },
            {
              "internalType": "uint256",
              "name": "amount",
              "type": "uint256"
            },
            {
              "internalType": "uint256",
              "name": "time",
              "type": "uint256"
            }
          ],
          "internalType": "struct Organization.Donation[]",
          "name": "",
          "type": "tuple[]"
        }
      ],
      "stateMutability": "view",
      "type": "function"
    },
    {
      "inputs": [],
      "name": "getBalance",
      "outputs": [
        {
          "internalType": "uint256",
          "name": "",
          "type": "uint256"
        }
      ],
      "stateMutability": "view",
      "type": "function"
    },
    {
      "inputs": [],
      "name": "getWithdrawTransaction",
      "outputs": [
        {
          "components": [
            {
              "internalType": "uint256",
              "name": "amount",
              "type": "uint256"
            },
            {
              "internalType": "uint256",
              "name": "time",
              "type": "uint256"
            }
          ],
          "internalType": "struct Organization.WithdrawHistory[]",
          "name": "",
          "type": "tuple[]"
        }
      ],
      "stateMutability": "view",
      "type": "function"
    }
  ],
  "bytecode": "0x60806040523480156200001157600080fd5b50604051620014d8380380620014d88339818101604052810190620000379190620002c6565b620000576200004b620000c160201b60201c565b620000c960201b60201c565b81600190805190602001906200006f9291906200018d565b5080600260006101000a81548173ffffffffffffffffffffffffffffffffffffffff021916908373ffffffffffffffffffffffffffffffffffffffff16021790555060006003819055505050620004de565b600033905090565b60008060009054906101000a900473ffffffffffffffffffffffffffffffffffffffff169050816000806101000a81548173ffffffffffffffffffffffffffffffffffffffff021916908373ffffffffffffffffffffffffffffffffffffffff1602179055508173ffffffffffffffffffffffffffffffffffffffff168173ffffffffffffffffffffffffffffffffffffffff167f8be0079c531659141344cd1fd0a4f28419497f9722a3daafe3b4186f6b6457e060405160405180910390a35050565b8280546200019b90620003e9565b90600052602060002090601f016020900481019282620001bf57600085556200020b565b82601f10620001da57805160ff19168380011785556200020b565b828001600101855582156200020b579182015b828111156200020a578251825591602001919060010190620001ed565b5b5090506200021a91906200021e565b5090565b5b80821115620002395760008160009055506001016200021f565b5090565b6000620002546200024e8462000349565b62000320565b9050828152602081018484840111156200026d57600080fd5b6200027a848285620003b3565b509392505050565b6000815190506200029381620004c4565b92915050565b600082601f830112620002ab57600080fd5b8151620002bd8482602086016200023d565b91505092915050565b60008060408385031215620002da57600080fd5b600083015167ffffffffffffffff811115620002f557600080fd5b620003038582860162000299565b9250506020620003168582860162000282565b9150509250929050565b60006200032c6200033f565b90506200033a82826200041f565b919050565b6000604051905090565b600067ffffffffffffffff82111562000367576200036662000484565b5b6200037282620004b3565b9050602081019050919050565b60006200038c8262000393565b9050919050565b600073ffffffffffffffffffffffffffffffffffffffff82169050919050565b60005b83811015620003d3578082015181840152602081019050620003b6565b83811115620003e3576000848401525b50505050565b600060028204905060018216806200040257607f821691505b6020821081141562000419576200041862000455565b5b50919050565b6200042a82620004b3565b810181811067ffffffffffffffff821117156200044c576200044b62000484565b5b80604052505050565b7f4e487b7100000000000000000000000000000000000000000000000000000000600052602260045260246000fd5b7f4e487b7100000000000000000000000000000000000000000000000000000000600052604160045260246000fd5b6000601f19601f8301169050919050565b620004cf816200037f565b8114620004db57600080fd5b50565b610fea80620004ee6000396000f3fe60806040526004361061009c5760003560e01c806391277e791161006457806391277e7914610143578063af640d0f1461016e578063de2ed89314610199578063e25f8416146101c4578063f14faf6f146101ef578063f2fde38b1461020b5761009c565b806306fdde03146100a157806312065fe0146100cc5780633ccfd60b146100f7578063715018a6146101015780638da5cb5b14610118575b600080fd5b3480156100ad57600080fd5b506100b6610234565b6040516100c39190610c8f565b60405180910390f35b3480156100d857600080fd5b506100e16102c2565b6040516100ee9190610d0c565b60405180910390f35b6100ff6102ca565b005b34801561010d57600080fd5b50610116610444565b005b34801561012457600080fd5b5061012d6104cc565b60405161013a9190610bf9565b60405180910390f35b34801561014f57600080fd5b506101586104f5565b6040516101659190610c6d565b60405180910390f35b34801561017a57600080fd5b50610183610568565b6040516101909190610bf9565b60405180910390f35b3480156101a557600080fd5b506101ae61058e565b6040516101bb9190610d0c565b60405180910390f35b3480156101d057600080fd5b506101d9610594565b6040516101e69190610c4b565b60405180910390f35b61020960048036038101906102049190610989565b61065d565b005b34801561021757600080fd5b50610232600480360381019061022d9190610960565b610772565b005b6001805461024190610e24565b80601f016020809104026020016040519081016040528092919081815260200182805461026d90610e24565b80156102ba5780601f1061028f576101008083540402835291602001916102ba565b820191906000526020600020905b81548152906001019060200180831161029d57829003601f168201915b505050505081565b600047905090565b6102d261086a565b73ffffffffffffffffffffffffffffffffffffffff166102f06104cc565b73ffffffffffffffffffffffffffffffffffffffff1614610346576040517f08c379a000000000000000000000000000000000000000000000000000000000815260040161033d90610cd1565b60405180910390fd5b60006040518060400160405280478152602001428152509050600581908060018154018082558091505060019003906000526020600020906002020160009091909190915060008201518160000155602082015181600101555050600260009054906101000a900473ffffffffffffffffffffffffffffffffffffffff1673ffffffffffffffffffffffffffffffffffffffff166108fc479081150290604051600060405180830381858888f19350505050158015610409573d6000803e3d6000fd5b507fe4b4a57aad84cd1e781db42a53e727417aeaa00824bab7f1e21ee2348bb73f6e816040516104399190610cf1565b60405180910390a150565b61044c61086a565b73ffffffffffffffffffffffffffffffffffffffff1661046a6104cc565b73ffffffffffffffffffffffffffffffffffffffff16146104c0576040517f08c379a00000000000000000000000000000000000000000000000000000000081526004016104b790610cd1565b60405180910390fd5b6104ca6000610872565b565b60008060009054906101000a900473ffffffffffffffffffffffffffffffffffffffff16905090565b60606005805480602002602001604051908101604052809291908181526020016000905b8282101561055f57838290600052602060002090600202016040518060400160405290816000820154815260200160018201548152505081526020019060010190610519565b50505050905090565b600260009054906101000a900473ffffffffffffffffffffffffffffffffffffffff1681565b60035481565b60606004805480602002602001604051908101604052809291908181526020016000905b8282101561065457838290600052602060002090600302016040518060600160405290816000820160009054906101000a900473ffffffffffffffffffffffffffffffffffffffff1673ffffffffffffffffffffffffffffffffffffffff1673ffffffffffffffffffffffffffffffffffffffff16815260200160018201548152602001600282015481525050815260200190600101906105b8565b50505050905090565b600060405180606001604052803373ffffffffffffffffffffffffffffffffffffffff168152602001838152602001428152509050600481908060018154018082558091505060019003906000526020600020906003020160009091909190915060008201518160000160006101000a81548173ffffffffffffffffffffffffffffffffffffffff021916908373ffffffffffffffffffffffffffffffffffffffff160217905550602082015181600101556040820151816002015550506003600081548092919061072e90610e56565b91905055507fb5c2c442d88525bd649cfbe83ce24b77b613966dcd91e8b2bc3f35d1cd936ac933834260405161076693929190610c14565b60405180910390a15050565b61077a61086a565b73ffffffffffffffffffffffffffffffffffffffff166107986104cc565b73ffffffffffffffffffffffffffffffffffffffff16146107ee576040517f08c379a00000000000000000000000000000000000000000000000000000000081526004016107e590610cd1565b60405180910390fd5b600073ffffffffffffffffffffffffffffffffffffffff168173ffffffffffffffffffffffffffffffffffffffff16141561085e576040517f08c379a000000000000000000000000000000000000000000000000000000000815260040161085590610cb1565b60405180910390fd5b61086781610872565b50565b600033905090565b60008060009054906101000a900473ffffffffffffffffffffffffffffffffffffffff169050816000806101000a81548173ffffffffffffffffffffffffffffffffffffffff021916908373ffffffffffffffffffffffffffffffffffffffff1602179055508173ffffffffffffffffffffffffffffffffffffffff168173ffffffffffffffffffffffffffffffffffffffff167f8be0079c531659141344cd1fd0a4f28419497f9722a3daafe3b4186f6b6457e060405160405180910390a35050565b60008135905061094581610f86565b92915050565b60008135905061095a81610f9d565b92915050565b60006020828403121561097257600080fd5b600061098084828501610936565b91505092915050565b60006020828403121561099b57600080fd5b60006109a98482850161094b565b91505092915050565b60006109be8383610b3b565b60608301905092915050565b60006109d68383610b7d565b60408301905092915050565b6109eb81610db5565b82525050565b6109fa81610db5565b82525050565b6000610a0b82610d47565b610a158185610d82565b9350610a2083610d27565b8060005b83811015610a51578151610a3888826109b2565b9750610a4383610d68565b925050600181019050610a24565b5085935050505092915050565b6000610a6982610d52565b610a738185610d93565b9350610a7e83610d37565b8060005b83811015610aaf578151610a9688826109ca565b9750610aa183610d75565b925050600181019050610a82565b5085935050505092915050565b6000610ac782610d5d565b610ad18185610da4565b9350610ae1818560208601610df1565b610aea81610efd565b840191505092915050565b6000610b02602683610da4565b9150610b0d82610f0e565b604082019050919050565b6000610b25602083610da4565b9150610b3082610f5d565b602082019050919050565b606082016000820151610b5160008501826109e2565b506020820151610b646020850182610bdb565b506040820151610b776040850182610bdb565b50505050565b604082016000820151610b936000850182610bdb565b506020820151610ba66020850182610bdb565b50505050565b604082016000820151610bc26000850182610bdb565b506020820151610bd56020850182610bdb565b50505050565b610be481610de7565b82525050565b610bf381610de7565b82525050565b6000602082019050610c0e60008301846109f1565b92915050565b6000606082019050610c2960008301866109f1565b610c366020830185610bea565b610c436040830184610bea565b949350505050565b60006020820190508181036000830152610c658184610a00565b905092915050565b60006020820190508181036000830152610c878184610a5e565b905092915050565b60006020820190508181036000830152610ca98184610abc565b905092915050565b60006020820190508181036000830152610cca81610af5565b9050919050565b60006020820190508181036000830152610cea81610b18565b9050919050565b6000604082019050610d066000830184610bac565b92915050565b6000602082019050610d216000830184610bea565b92915050565b6000819050602082019050919050565b6000819050602082019050919050565b600081519050919050565b600081519050919050565b600081519050919050565b6000602082019050919050565b6000602082019050919050565b600082825260208201905092915050565b600082825260208201905092915050565b600082825260208201905092915050565b6000610dc082610dc7565b9050919050565b600073ffffffffffffffffffffffffffffffffffffffff82169050919050565b6000819050919050565b60005b83811015610e0f578082015181840152602081019050610df4565b83811115610e1e576000848401525b50505050565b60006002820490506001821680610e3c57607f821691505b60208210811415610e5057610e4f610ece565b5b50919050565b6000610e6182610de7565b91507fffffffffffffffffffffffffffffffffffffffffffffffffffffffffffffffff821415610e9457610e93610e9f565b5b600182019050919050565b7f4e487b7100000000000000000000000000000000000000000000000000000000600052601160045260246000fd5b7f4e487b7100000000000000000000000000000000000000000000000000000000600052602260045260246000fd5b6000601f19601f8301169050919050565b7f4f776e61626c653a206e6577206f776e657220697320746865207a65726f206160008201527f6464726573730000000000000000000000000000000000000000000000000000602082015250565b7f4f776e61626c653a2063616c6c6572206973206e6f7420746865206f776e6572600082015250565b610f8f81610db5565b8114610f9a57600080fd5b50565b610fa681610de7565b8114610fb157600080fd5b5056fea26469706673582212201b61f3d3f60c72fd1e6378f26b88bef8ec7ad48771b5ce6029ad20e5cbd42b2d64736f6c63430008040033",
  "immutableReferences": {},
  "source": "// SPDX-License-Identifier: MIT\r\npragma solidity >0.4.23 <0.9.0;\r\n\r\nimport \"@openzeppelin/contracts/access/Ownable.sol\";\r\n\r\ncontract Organization is Ownable {\r\n  string public name;\r\n  address public id;\r\n  uint public totalDonations;\r\n\r\n  struct Donation {\r\n    address donorId;\r\n    uint amount;\r\n    uint time;\r\n  }\r\n\r\n  struct WithdrawHistory {\r\n    uint amount;\r\n    uint time;\r\n  }\r\n\r\n  Donation[] donations;\r\n  WithdrawHistory[] histories;\r\n\r\n  constructor ( string memory _name, address _id ) {\r\n    name = _name;\r\n    id = _id;\r\n    totalDonations = 0;\r\n  }\r\n\r\n  event donationCreated (address _from, uint _amount, uint _time);\r\n  event withDrawSuccess (WithdrawHistory _history);\r\n\r\n  function donate (uint _amount) external payable{\r\n    Donation memory donation = Donation(msg.sender, _amount, block.timestamp);\r\n    donations.push(donation);\r\n    totalDonations++;\r\n    emit donationCreated(msg.sender, _amount, block.timestamp);\r\n  }\r\n\r\n  function withdraw () public payable onlyOwner{\r\n    WithdrawHistory memory history = WithdrawHistory(address(this).balance, block.timestamp);\r\n    histories.push(history);\r\n    payable(id).transfer(address(this).balance);\r\n    emit withDrawSuccess(history);\r\n  }\r\n\r\n  function getDonations () public view returns (Donation[] memory) {\r\n    return donations;\r\n  }\r\n\r\n  // function getTotalDonations() public view returns (uint) {\r\n  //   return totalDonations;\r\n  // }\r\n  function getBalance() public view returns (uint){\r\n    return address(this).balance;\r\n  }\r\n\r\n  function getWithdrawTransaction () public view returns (WithdrawHistory[] memory) {\r\n    return histories;\r\n  }\r\n  // function isOwner() public view returns (bool) {\r\n  //   return address(this) == msg.sender;\r\n  // }\r\n\r\n}",
  "sourcePath": "D:\\WORK\\chicken-donate\\contracts\\Organization.sol",
  "compiler": {
    "name": "solc",
    "version": "0.8.4+commit.c7e474f2.Emscripten.clang"
  },
  "schemaVersion": "3.4.7",
  "updatedAt": "2022-05-29T11:45:23.994Z",
  "devdoc": {
    "kind": "dev",
    "methods": {
      "owner()": {
        "details": "Returns the address of the current owner."
      },
      "renounceOwnership()": {
        "details": "Leaves the contract without owner. It will not be possible to call `onlyOwner` functions anymore. Can only be called by the current owner. NOTE: Renouncing ownership will leave the contract without an owner, thereby removing any functionality that is only available to the owner."
      },
      "transferOwnership(address)": {
        "details": "Transfers ownership of the contract to a new account (`newOwner`). Can only be called by the current owner."
      }
    },
    "version": 1
  },
  "userdoc": {
    "kind": "user",
    "methods": {},
    "version": 1
  }
}