{
  "_format": "hh-sol-artifact-1",
  "contractName": "DonationChain",
  "sourceName": "contracts/DonationChain.sol",
  "abi": [
    {
      "anonymous": false,
      "inputs": [
        {
          "indexed": true,
          "internalType": "address",
          "name": "_from",
          "type": "address"
        },
        {
          "indexed": true,
          "internalType": "address",
          "name": "_to",
          "type": "address"
        },
        {
          "indexed": false,
          "internalType": "uint256",
          "name": "_value",
          "type": "uint256"
        }
      ],
      "name": "Transfer",
      "type": "event"
    },
    {
      "inputs": [
        {
          "internalType": "address",
          "name": "_address",
          "type": "address"
        },
        {
          "internalType": "string",
          "name": "_name",
          "type": "string"
        }
      ],
      "name": "createDonors",
      "outputs": [],
      "stateMutability": "nonpayable",
      "type": "function"
    },
    {
      "inputs": [
        {
          "internalType": "uint256",
          "name": "_amount",
          "type": "uint256"
        },
        {
          "internalType": "address",
          "name": "_organisationId",
          "type": "address"
        },
        {
          "internalType": "string",
          "name": "_donorName",
          "type": "string"
        }
      ],
      "name": "donationForOrganization",
      "outputs": [],
      "stateMutability": "payable",
      "type": "function"
    },
    {
      "inputs": [
        {
          "internalType": "address",
          "name": "",
          "type": "address"
        },
        {
          "internalType": "uint256",
          "name": "",
          "type": "uint256"
        }
      ],
      "name": "donations",
      "outputs": [
        {
          "internalType": "address",
          "name": "donorId",
          "type": "address"
        },
        {
          "internalType": "uint256",
          "name": "amount",
          "type": "uint256"
        },
        {
          "internalType": "address",
          "name": "organisationId",
          "type": "address"
        },
        {
          "internalType": "uint256",
          "name": "time",
          "type": "uint256"
        }
      ],
      "stateMutability": "view",
      "type": "function"
    },
    {
      "inputs": [],
      "name": "getBalanceContract",
      "outputs": [
        {
          "internalType": "uint256",
          "name": "",
          "type": "uint256"
        }
      ],
      "stateMutability": "view",
      "type": "function"
    },
    {
      "inputs": [
        {
          "internalType": "address",
          "name": "_address",
          "type": "address"
        }
      ],
      "name": "getBalanceOfOrganisation",
      "outputs": [
        {
          "internalType": "uint256",
          "name": "",
          "type": "uint256"
        }
      ],
      "stateMutability": "view",
      "type": "function"
    },
    {
      "inputs": [
        {
          "internalType": "address",
          "name": "_oganisationId",
          "type": "address"
        }
      ],
      "name": "getDonationOfOrganization",
      "outputs": [
        {
          "components": [
            {
              "internalType": "address",
              "name": "donorId",
              "type": "address"
            },
            {
              "internalType": "uint256",
              "name": "amount",
              "type": "uint256"
            },
            {
              "internalType": "address",
              "name": "organisationId",
              "type": "address"
            },
            {
              "internalType": "uint256",
              "name": "time",
              "type": "uint256"
            }
          ],
          "internalType": "struct DonationChain.Donation[]",
          "name": "",
          "type": "tuple[]"
        }
      ],
      "stateMutability": "view",
      "type": "function"
    },
    {
      "inputs": [
        {
          "internalType": "address",
          "name": "_address",
          "type": "address"
        }
      ],
      "name": "getDonorNameByAddress",
      "outputs": [
        {
          "internalType": "string",
          "name": "",
          "type": "string"
        }
      ],
      "stateMutability": "view",
      "type": "function"
    }
  ],
  "bytecode": "0x608060405234801561001057600080fd5b50610fc6806100206000396000f3fe6080604052600436106100705760003560e01c806395086ed11161004e57806395086ed114610106578063d4fe936114610146578063dc19b3f514610183578063fff9a487146101c057610070565b80630f7951e514610075578063358d6673146100b257806366bd78fd146100db575b600080fd5b34801561008157600080fd5b5061009c600480360381019061009791906109de565b6101dc565b6040516100a99190610cc7565b60405180910390f35b3480156100be57600080fd5b506100d960048036038101906100d49190610a07565b610225565b005b3480156100e757600080fd5b506100f06102f9565b6040516100fd9190610cc7565b60405180910390f35b34801561011257600080fd5b5061012d60048036038101906101289190610a5b565b610301565b60405161013d9493929190610c3e565b60405180910390f35b34801561015257600080fd5b5061016d600480360381019061016891906109de565b61038e565b60405161017a9190610ca5565b60405180910390f35b34801561018f57600080fd5b506101aa60048036038101906101a591906109de565b6104d2565b6040516101b79190610c83565b60405180910390f35b6101da60048036038101906101d59190610a97565b610636565b005b6000600160008373ffffffffffffffffffffffffffffffffffffffff1673ffffffffffffffffffffffffffffffffffffffff168152602001908152602001600020549050919050565b60405180604001604052808281526020018373ffffffffffffffffffffffffffffffffffffffff168152506000808473ffffffffffffffffffffffffffffffffffffffff1673ffffffffffffffffffffffffffffffffffffffff16815260200190815260200160002060008201518160000190805190602001906102aa9291906108a9565b5060208201518160010160006101000a81548173ffffffffffffffffffffffffffffffffffffffff021916908373ffffffffffffffffffffffffffffffffffffffff1602179055509050505050565b600047905090565b6002602052816000526040600020818154811061031d57600080fd5b9060005260206000209060040201600091509150508060000160009054906101000a900473ffffffffffffffffffffffffffffffffffffffff16908060010154908060020160009054906101000a900473ffffffffffffffffffffffffffffffffffffffff16908060030154905084565b606060008060008473ffffffffffffffffffffffffffffffffffffffff1673ffffffffffffffffffffffffffffffffffffffff1681526020019081526020016000206040518060400160405290816000820180546103eb90610e61565b80601f016020809104026020016040519081016040528092919081815260200182805461041790610e61565b80156104645780601f1061043957610100808354040283529160200191610464565b820191906000526020600020905b81548152906001019060200180831161044757829003601f168201915b505050505081526020016001820160009054906101000a900473ffffffffffffffffffffffffffffffffffffffff1673ffffffffffffffffffffffffffffffffffffffff1673ffffffffffffffffffffffffffffffffffffffff168152505090508060000151915050919050565b60606000600260008473ffffffffffffffffffffffffffffffffffffffff1673ffffffffffffffffffffffffffffffffffffffff168152602001908152602001600020805480602002602001604051908101604052809291908181526020016000905b8282101561062757838290600052602060002090600402016040518060800160405290816000820160009054906101000a900473ffffffffffffffffffffffffffffffffffffffff1673ffffffffffffffffffffffffffffffffffffffff1673ffffffffffffffffffffffffffffffffffffffff168152602001600182015481526020016002820160009054906101000a900473ffffffffffffffffffffffffffffffffffffffff1673ffffffffffffffffffffffffffffffffffffffff1673ffffffffffffffffffffffffffffffffffffffff16815260200160038201548152505081526020019060010190610535565b50505050905080915050919050565b600060405180608001604052803373ffffffffffffffffffffffffffffffffffffffff1681526020018581526020018473ffffffffffffffffffffffffffffffffffffffff168152602001428152509050600260008473ffffffffffffffffffffffffffffffffffffffff1673ffffffffffffffffffffffffffffffffffffffff16815260200190815260200160002081908060018154018082558091505060019003906000526020600020906004020160009091909190915060008201518160000160006101000a81548173ffffffffffffffffffffffffffffffffffffffff021916908373ffffffffffffffffffffffffffffffffffffffff1602179055506020820151816001015560408201518160020160006101000a81548173ffffffffffffffffffffffffffffffffffffffff021916908373ffffffffffffffffffffffffffffffffffffffff1602179055506060820151816003015550508273ffffffffffffffffffffffffffffffffffffffff163373ffffffffffffffffffffffffffffffffffffffff167fddf252ad1be2c89b69c2b068fc378daa952ba7f163c4a11628f55a4df523b3ef866040516107f19190610cc7565b60405180910390a36108033383610225565b83600160008573ffffffffffffffffffffffffffffffffffffffff1673ffffffffffffffffffffffffffffffffffffffff1681526020019081526020016000205461084e9190610d8d565b600160008573ffffffffffffffffffffffffffffffffffffffff1673ffffffffffffffffffffffffffffffffffffffff168152602001908152602001600020600082825461089c9190610d8d565b9250508190555050505050565b8280546108b590610e61565b90600052602060002090601f0160209004810192826108d7576000855561091e565b82601f106108f057805160ff191683800117855561091e565b8280016001018555821561091e579182015b8281111561091d578251825591602001919060010190610902565b5b50905061092b919061092f565b5090565b5b80821115610948576000816000905550600101610930565b5090565b600061095f61095a84610d07565b610ce2565b90508281526020810184848401111561097757600080fd5b610982848285610e1f565b509392505050565b60008135905061099981610f62565b92915050565b600082601f8301126109b057600080fd5b81356109c084826020860161094c565b91505092915050565b6000813590506109d881610f79565b92915050565b6000602082840312156109f057600080fd5b60006109fe8482850161098a565b91505092915050565b60008060408385031215610a1a57600080fd5b6000610a288582860161098a565b925050602083013567ffffffffffffffff811115610a4557600080fd5b610a518582860161099f565b9150509250929050565b60008060408385031215610a6e57600080fd5b6000610a7c8582860161098a565b9250506020610a8d858286016109c9565b9150509250929050565b600080600060608486031215610aac57600080fd5b6000610aba868287016109c9565b9350506020610acb8682870161098a565b925050604084013567ffffffffffffffff811115610ae857600080fd5b610af48682870161099f565b9150509250925092565b6000610b0a8383610bcb565b60808301905092915050565b610b1f81610de3565b82525050565b610b2e81610de3565b82525050565b6000610b3f82610d48565b610b498185610d6b565b9350610b5483610d38565b8060005b83811015610b85578151610b6c8882610afe565b9750610b7783610d5e565b925050600181019050610b58565b5085935050505092915050565b6000610b9d82610d53565b610ba78185610d7c565b9350610bb7818560208601610e2e565b610bc081610f51565b840191505092915050565b608082016000820151610be16000850182610b16565b506020820151610bf46020850182610c20565b506040820151610c076040850182610b16565b506060820151610c1a6060850182610c20565b50505050565b610c2981610e15565b82525050565b610c3881610e15565b82525050565b6000608082019050610c536000830187610b25565b610c606020830186610c2f565b610c6d6040830185610b25565b610c7a6060830184610c2f565b95945050505050565b60006020820190508181036000830152610c9d8184610b34565b905092915050565b60006020820190508181036000830152610cbf8184610b92565b905092915050565b6000602082019050610cdc6000830184610c2f565b92915050565b6000610cec610cfd565b9050610cf88282610e93565b919050565b6000604051905090565b600067ffffffffffffffff821115610d2257610d21610f22565b5b610d2b82610f51565b9050602081019050919050565b6000819050602082019050919050565b600081519050919050565b600081519050919050565b6000602082019050919050565b600082825260208201905092915050565b600082825260208201905092915050565b6000610d9882610e15565b9150610da383610e15565b9250827fffffffffffffffffffffffffffffffffffffffffffffffffffffffffffffffff03821115610dd857610dd7610ec4565b5b828201905092915050565b6000610dee82610df5565b9050919050565b600073ffffffffffffffffffffffffffffffffffffffff82169050919050565b6000819050919050565b82818337600083830152505050565b60005b83811015610e4c578082015181840152602081019050610e31565b83811115610e5b576000848401525b50505050565b60006002820490506001821680610e7957607f821691505b60208210811415610e8d57610e8c610ef3565b5b50919050565b610e9c82610f51565b810181811067ffffffffffffffff82111715610ebb57610eba610f22565b5b80604052505050565b7f4e487b7100000000000000000000000000000000000000000000000000000000600052601160045260246000fd5b7f4e487b7100000000000000000000000000000000000000000000000000000000600052602260045260246000fd5b7f4e487b7100000000000000000000000000000000000000000000000000000000600052604160045260246000fd5b6000601f19601f8301169050919050565b610f6b81610de3565b8114610f7657600080fd5b50565b610f8281610e15565b8114610f8d57600080fd5b5056fea2646970667358221220ca78034e247c2cf664314f070eab744b5e85aece3c8ed8a324a5b57e9115242e64736f6c63430008040033",
  "linkReferences": {},
  "deployedLinkReferences": {}
}