{
  "_format": "hh-sol-artifact-1",
  "contractName": "OrganizationFactory",
  "sourceName": "contracts/OrganizationFactory.sol",
  "abi": [
    {
      "inputs": [
        {
          "internalType": "address",
          "name": "initialOwner",
          "type": "address"
        }
      ],
      "stateMutability": "nonpayable",
      "type": "constructor"
    },
    {
      "inputs": [
        {
          "internalType": "address",
          "name": "owner",
          "type": "address"
        }
      ],
      "name": "OwnableInvalidOwner",
      "type": "error"
    },
    {
      "inputs": [
        {
          "internalType": "address",
          "name": "account",
          "type": "address"
        }
      ],
      "name": "OwnableUnauthorizedAccount",
      "type": "error"
    },
    {
      "anonymous": false,
      "inputs": [
        {
          "indexed": true,
          "internalType": "address",
          "name": "_address",
          "type": "address"
        }
      ],
      "name": "OrganizationCreated",
      "type": "event"
    },
    {
      "anonymous": false,
      "inputs": [
        {
          "indexed": true,
          "internalType": "address",
          "name": "_address",
          "type": "address"
        }
      ],
      "name": "OrganizationDeactived",
      "type": "event"
    },
    {
      "anonymous": false,
      "inputs": [
        {
          "indexed": true,
          "internalType": "address",
          "name": "previousOwner",
          "type": "address"
        },
        {
          "indexed": true,
          "internalType": "address",
          "name": "newOwner",
          "type": "address"
        }
      ],
      "name": "OwnershipTransferred",
      "type": "event"
    },
    {
      "inputs": [
        {
          "internalType": "uint256",
          "name": "",
          "type": "uint256"
        }
      ],
      "name": "_organizations",
      "outputs": [
        {
          "internalType": "address",
          "name": "_address",
          "type": "address"
        },
        {
          "internalType": "bool",
          "name": "flag",
          "type": "bool"
        }
      ],
      "stateMutability": "view",
      "type": "function"
    },
    {
      "inputs": [],
      "name": "createOrganization",
      "outputs": [],
      "stateMutability": "payable",
      "type": "function"
    },
    {
      "inputs": [],
      "name": "deactiveOrganization",
      "outputs": [],
      "stateMutability": "nonpayable",
      "type": "function"
    },
    {
      "inputs": [],
      "name": "getOrganization",
      "outputs": [
        {
          "components": [
            {
              "internalType": "address",
              "name": "_address",
              "type": "address"
            },
            {
              "internalType": "bool",
              "name": "flag",
              "type": "bool"
            }
          ],
          "internalType": "struct OrganizationFactory.Organization",
          "name": "",
          "type": "tuple"
        }
      ],
      "stateMutability": "view",
      "type": "function"
    },
    {
      "inputs": [],
      "name": "getOrganizations",
      "outputs": [
        {
          "components": [
            {
              "internalType": "address",
              "name": "_address",
              "type": "address"
            },
            {
              "internalType": "bool",
              "name": "flag",
              "type": "bool"
            }
          ],
          "internalType": "struct OrganizationFactory.Organization[]",
          "name": "",
          "type": "tuple[]"
        }
      ],
      "stateMutability": "view",
      "type": "function"
    },
    {
      "inputs": [],
      "name": "owner",
      "outputs": [
        {
          "internalType": "address",
          "name": "",
          "type": "address"
        }
      ],
      "stateMutability": "view",
      "type": "function"
    },
    {
      "inputs": [],
      "name": "renounceOwnership",
      "outputs": [],
      "stateMutability": "nonpayable",
      "type": "function"
    },
    {
      "inputs": [
        {
          "internalType": "address",
          "name": "newOwner",
          "type": "address"
        }
      ],
      "name": "transferOwnership",
      "outputs": [],
      "stateMutability": "nonpayable",
      "type": "function"
    },
    {
      "inputs": [],
      "name": "withdraw",
      "outputs": [],
      "stateMutability": "payable",
      "type": "function"
    }
  ],
  "bytecode": "0x60806040523480156200001157600080fd5b5060405162000ecd38038062000ecd8339818101604052810190620000379190620001f4565b80600073ffffffffffffffffffffffffffffffffffffffff168173ffffffffffffffffffffffffffffffffffffffff1603620000ad5760006040517f1e4fbdf7000000000000000000000000000000000000000000000000000000008152600401620000a4919062000237565b60405180910390fd5b620000be81620000c660201b60201c565b505062000254565b60008060009054906101000a900473ffffffffffffffffffffffffffffffffffffffff169050816000806101000a81548173ffffffffffffffffffffffffffffffffffffffff021916908373ffffffffffffffffffffffffffffffffffffffff1602179055508173ffffffffffffffffffffffffffffffffffffffff168173ffffffffffffffffffffffffffffffffffffffff167f8be0079c531659141344cd1fd0a4f28419497f9722a3daafe3b4186f6b6457e060405160405180910390a35050565b600080fd5b600073ffffffffffffffffffffffffffffffffffffffff82169050919050565b6000620001bc826200018f565b9050919050565b620001ce81620001af565b8114620001da57600080fd5b50565b600081519050620001ee81620001c3565b92915050565b6000602082840312156200020d576200020c6200018a565b5b60006200021d84828501620001dd565b91505092915050565b6200023181620001af565b82525050565b60006020820190506200024e600083018462000226565b92915050565b610c6980620002646000396000f3fe6080604052600436106100865760003560e01c80639754a3a8116100595780639754a3a814610115578063abb8e21314610140578063dd7d78401461016b578063ef25d03c14610175578063f2fde38b1461018c57610086565b80633cab149f1461008b5780633ccfd60b146100c9578063715018a6146100d35780638da5cb5b146100ea575b600080fd5b34801561009757600080fd5b506100b260048036038101906100ad91906108bc565b6101b5565b6040516100c0929190610945565b60405180910390f35b6100d1610212565b005b3480156100df57600080fd5b506100e8610263565b005b3480156100f657600080fd5b506100ff610277565b60405161010c919061096e565b60405180910390f35b34801561012157600080fd5b5061012a6102a0565b6040516101379190610a85565b60405180910390f35b34801561014c57600080fd5b5061015561036c565b6040516101629190610ad6565b60405180910390f35b610173610434565b005b34801561018157600080fd5b5061018a61058a565b005b34801561019857600080fd5b506101b360048036038101906101ae9190610b1d565b610676565b005b600281815481106101c557600080fd5b906000526020600020016000915090508060000160009054906101000a900473ffffffffffffffffffffffffffffffffffffffff16908060000160149054906101000a900460ff16905082565b61021a6106fc565b3373ffffffffffffffffffffffffffffffffffffffff166108fc479081150290604051600060405180830381858888f19350505050158015610260573d6000803e3d6000fd5b50565b61026b6106fc565b6102756000610783565b565b60008060009054906101000a900473ffffffffffffffffffffffffffffffffffffffff16905090565b60606002805480602002602001604051908101604052809291908181526020016000905b82821015610363578382906000526020600020016040518060400160405290816000820160009054906101000a900473ffffffffffffffffffffffffffffffffffffffff1673ffffffffffffffffffffffffffffffffffffffff1673ffffffffffffffffffffffffffffffffffffffff1681526020016000820160149054906101000a900460ff161515151581525050815260200190600101906102c4565b50505050905090565b61037461084f565b600360003373ffffffffffffffffffffffffffffffffffffffff1673ffffffffffffffffffffffffffffffffffffffff1681526020019081526020016000206040518060400160405290816000820160009054906101000a900473ffffffffffffffffffffffffffffffffffffffff1673ffffffffffffffffffffffffffffffffffffffff1673ffffffffffffffffffffffffffffffffffffffff1681526020016000820160149054906101000a900460ff161515151581525050905090565b600360003373ffffffffffffffffffffffffffffffffffffffff1673ffffffffffffffffffffffffffffffffffffffff16815260200190815260200160002060000160149054906101000a900460ff16156104c4576040517f08c379a00000000000000000000000000000000000000000000000000000000081526004016104bb90610ba7565b60405180910390fd5b600060405180604001604052803373ffffffffffffffffffffffffffffffffffffffff1681526020016001151581525090506002819080600181540180825580915050600190039060005260206000200160009091909190915060008201518160000160006101000a81548173ffffffffffffffffffffffffffffffffffffffff021916908373ffffffffffffffffffffffffffffffffffffffff16021790555060208201518160000160146101000a81548160ff021916908315150217905550505050565b600360003373ffffffffffffffffffffffffffffffffffffffff1673ffffffffffffffffffffffffffffffffffffffff16815260200190815260200160002060000160149054906101000a900460ff16610619576040517f08c379a000000000000000000000000000000000000000000000000000000000815260040161061090610c13565b60405180910390fd5b6000600360003373ffffffffffffffffffffffffffffffffffffffff1673ffffffffffffffffffffffffffffffffffffffff16815260200190815260200160002060000160146101000a81548160ff021916908315150217905550565b61067e6106fc565b600073ffffffffffffffffffffffffffffffffffffffff168173ffffffffffffffffffffffffffffffffffffffff16036106f05760006040517f1e4fbdf70000000000000000000000000000000000000000000000000000000081526004016106e7919061096e565b60405180910390fd5b6106f981610783565b50565b610704610847565b73ffffffffffffffffffffffffffffffffffffffff16610722610277565b73ffffffffffffffffffffffffffffffffffffffff161461078157610745610847565b6040517f118cdaa7000000000000000000000000000000000000000000000000000000008152600401610778919061096e565b60405180910390fd5b565b60008060009054906101000a900473ffffffffffffffffffffffffffffffffffffffff169050816000806101000a81548173ffffffffffffffffffffffffffffffffffffffff021916908373ffffffffffffffffffffffffffffffffffffffff1602179055508173ffffffffffffffffffffffffffffffffffffffff168173ffffffffffffffffffffffffffffffffffffffff167f8be0079c531659141344cd1fd0a4f28419497f9722a3daafe3b4186f6b6457e060405160405180910390a35050565b600033905090565b6040518060400160405280600073ffffffffffffffffffffffffffffffffffffffff1681526020016000151581525090565b600080fd5b6000819050919050565b61089981610886565b81146108a457600080fd5b50565b6000813590506108b681610890565b92915050565b6000602082840312156108d2576108d1610881565b5b60006108e0848285016108a7565b91505092915050565b600073ffffffffffffffffffffffffffffffffffffffff82169050919050565b6000610914826108e9565b9050919050565b61092481610909565b82525050565b60008115159050919050565b61093f8161092a565b82525050565b600060408201905061095a600083018561091b565b6109676020830184610936565b9392505050565b6000602082019050610983600083018461091b565b92915050565b600081519050919050565b600082825260208201905092915050565b6000819050602082019050919050565b6109be81610909565b82525050565b6109cd8161092a565b82525050565b6040820160008201516109e960008501826109b5565b5060208201516109fc60208501826109c4565b50505050565b6000610a0e83836109d3565b60408301905092915050565b6000602082019050919050565b6000610a3282610989565b610a3c8185610994565b9350610a47836109a5565b8060005b83811015610a78578151610a5f8882610a02565b9750610a6a83610a1a565b925050600181019050610a4b565b5085935050505092915050565b60006020820190508181036000830152610a9f8184610a27565b905092915050565b604082016000820151610abd60008501826109b5565b506020820151610ad060208501826109c4565b50505050565b6000604082019050610aeb6000830184610aa7565b92915050565b610afa81610909565b8114610b0557600080fd5b50565b600081359050610b1781610af1565b92915050565b600060208284031215610b3357610b32610881565b5b6000610b4184828501610b08565b91505092915050565b600082825260208201905092915050565b7f416c726561647920696e2073797374656d000000000000000000000000000000600082015250565b6000610b91601183610b4a565b9150610b9c82610b5b565b602082019050919050565b60006020820190508181036000830152610bc081610b84565b9050919050565b7f4e6f7420696e2073797374656d00000000000000000000000000000000000000600082015250565b6000610bfd600d83610b4a565b9150610c0882610bc7565b602082019050919050565b60006020820190508181036000830152610c2c81610bf0565b905091905056fea2646970667358221220e4d88ed8ae0a03c3c2668ac8731d351178b7700ad906df9cd8a27de8a96fb74264736f6c63430008140033",
  "linkReferences": {},
  "deployedLinkReferences": {}
}